:020000040800F2
:100000000028002081180008FD17000803180008C8
:10001000091800080F180008151800080000000053
:100020000000000000000000000000001B18000895
:100030002718000800000000331800083F180008C7
:10004000C9180008C9180008C9180008C91800080C
:10005000C9180008C9180008C9180008C9180008FC
:10006000C9180008C9180008C9180008C9180008EC
:10007000C9180008C9180008C9180008C9180008DC
:10008000C9180008C9180008C9180008C9180008CC
:10009000C9180008C9180008C9180008C9180008BC
:1000A000C9180008C9180008C9180008C9180008AC
:1000B0004D180008C918000800000000C918000801
:1000C000C91800080000000000000000C91800085E
:1000D00000000000C91800086118000800000000B6
:1000E000C9180008C9180008C91800080000000055
:1000F0000000000000000000000000000000000000
:0C01000000000000000000005FF808F1A3
:10010C0010B5054C237833B9044B13B10448AFF345
:10011C0000800123237010BD680000200000000047
:10012C00003E000808B5034B1BB103490348AFF36D
:10013C00008008BD000000006C000020003E00089C
:10014C0080B483B000AF7860094A7B6852F82330E2
:10015C00002B06D0064A7B68002142F823100123AD
:10016C0000E0002318460C37BD4680BC704700BF2A
:10017C008400002080B483B000AF7860044A7B68B0
:10018C00012142F8231000BF0C37BD4680BC7047DC
:10019C008400002080B582B000AF00237B606DE04E
:1001AC003A4A7B6852F8232039497B6841F823206E
:1001BC00384A7B6852F8232034497B6841F8232065
:1001CC00354A7B6852F8232034497B6831F8133068
:1001DC001946104601F010FF034619462D4A7B685C
:1001EC0042F823102A4A7B6852F8232027497B685F
:1001FC0051F823309A423ED1244A7B6852F823208E
:10020C0024497B6851F823309A4234D1244A7B68C4
:10021C0052F823201F497B6851F823309A4216D09C
:10022C001C4A7B6852F823201D497B6841F8232027
:10023C00184A7B6852F82330002B1CD17868FFF7E2
:10024C0099FF184A7B68C82142F8231013E0154A1D
:10025C007B6852F823305A1E12497B6841F82320E0
:10026C00104A7B6852F82330002B04D10C4A7B686F
:10027C00012142F823107B6801337B607B68022BE1
:10028C008EDD00BF00BF0837BD4680BD0C000020CE
:10029C0000000020180000203C0000204800002036
:1002AC00240000203000002080B500AF01224FF464
:1002BC000061154801F0B7FE01224FF4805112483D
:1002CC0001F0B1FE01224FF400510F4801F0ABFEDA
:1002DC00012210210C4801F0A6FE012220210A481F
:1002EC0001F0A1FE01224021074801F09CFE074BC2
:1002FC0002221A60064B1B68064A1360064B1B68E9
:10030C00064A136000BF80BD00080140B000002009
:10031C0050000020A400002058000020A80000205D
:10032C0080B582B000AF78607B68092B00F28081C9
:10033C0001A252F823F000BF6D030008B5030008BA
:10034C00FD030008450400088D040008D5040008CE
:10035C001D05000865050008AD050008F505000839
:10036C0000220121B54801F05EFE00220221B348B3
:10037C0001F059FE00220421B04801F054FE002285
:10038C000821AE4801F04FFE00221021AB4801F0CD
:10039C004AFE00222021A94801F045FE01224021FD
:1003AC00A64801F040FE44E101220121A34801F0DE
:1003BC003AFE00220221A14801F035FE0022042160
:1003CC009E4801F030FE012208219C4801F02BFED2
:1003DC0001221021994801F026FE01222021974884
:1003EC0001F021FE01224021944801F01CFE20E185
:1003FC0000220121914801F016FE002202218F48B3
:10040C0001F011FE012204218C4801F00CFE0022A7
:10041C0008218A4801F007FE00221021874801F0CC
:10042C0002FE01222021854801F0FDFD0022402121
:10043C00824801F0F8FDFCE0002201217F4801F028
:10044C00F2FD002202217D4801F0EDFD0022042185
:10045C007A4801F0E8FD00220821784801F0E3FD1C
:10046C0001221021754801F0DEFD01222021734884
:10047C0001F0D9FD00224021704801F0D4FDD8E0F4
:10048C00012201216D4801F0CEFD002202216B48B2
:10049C0001F0C9FD00220421684801F0C4FD0122CD
:1004AC000821664801F0BFFD01221021634801F0CC
:1004BC00BAFD00222021614801F0B5FD0022402147
:1004CC005E4801F0B0FDB4E0002201215B4801F070
:1004DC00AAFD01220221594801F0A5FD00220421A8
:1004EC00564801F0A0FD00220821544801F09BFD64
:1004FC0001221021514801F096FD002220214F4885
:10050C0001F091FD002240214C4801F08CFD90E05F
:10051C0000220121494801F086FD012202214748B1
:10052C0001F081FD00220421444801F07CFD0022F1
:10053C000821424801F077FD002210213F4801F0CC
:10054C0072FD002220213D4801F06DFD002240216A
:10055C003A4801F068FD6CE000220121374801F0B7
:10056C0062FD00220221354801F05DFD00220421CC
:10057C00324801F058FD01220821304801F053FDAA
:10058C00012210212D4801F04EFD012220212B4883
:10059C0001F049FD01224021284801F044FD48E0CA
:1005AC0000220121254801F03EFD002202212348B2
:1005BC0001F039FD00220421204801F034FD002215
:1005CC0008211E4801F02FFD002210211B4801F0CC
:1005DC002AFD00222021194801F025FD002240218E
:1005EC00164801F020FD24E000220121134801F0FF
:1005FC001AFD00220221114801F015FD00220421F0
:10060C000E4801F010FD002208210C4801F00BFDF2
:10061C0001221021094801F006FD00222021074883
:10062C0001F001FD00224021044801F0FCFC00E037
:10063C0000BF00BF0837BD4680BD00BF000C0140A5
:10064C0080B400AF504B1B68082B46D0082B64DCE1
:10065C00062B02D0072B20D05FE04C4B00221A60F7
:10066C004A4B02225A604A4B1B684A4A82FB0312CD
:10067C009210DB17D31A454A9360454B1968454BCA
:10068C0083FB01239A10CB17D21A13469B001344F9
:10069C005B00CA1A3D4BDA6072E03C4B00221A60D8
:1006AC003A4B03225A603A4B1B683A4A82FB0312BC
:1006BC009210DB17D31A354A9360354B1968354BBA
:1006CC0083FB01239A10CB17D21A13469B001344B9
:1006DC005B00CA1A2D4BDA6052E02C4B00221A60D8
:1006EC002A4B04225A602A4B1B682A4A82FB0312AB
:1006FC009210DB17D31A254A9360254B1968254BAA
:10070C0083FB01239A10CB17D21A13469B00134478
:10071C005B00CA1A1D4BDA6032E01F4B1B681D4A86
:10072C0082FB03129210DB17D31A184A13601A4B70
:10073C001968184B83FB01239A10CB17D21A134656
:10074C009B0013445B00CA1A104B5A60134B1B6876
:10075C00104A82FB03129210DB17D31A0B4A9360D8
:10076C000E4B19680B4B83FB01239A10CB17D21A33
:10077C0013469B0013445B00CA1A044BDA6000BF9B
:10078C0000BFBD4680BC7047B00000209000002028
:10079C00AC00002067666666A4000020A80000205C
:1007AC0080B500AF364B1B68082B46D0082B64DC99
:1007BC00062B02D0072B20D05FE04FF400613148AC
:1007CC0001F049FC01224FF480512E4801F02BFC22
:1007DC0001224FF400512B4801F025FC102129482F
:1007EC0001F039FC01222021264801F01CFC0122D9
:1007FC004021244801F017FC40E001224FF4006135
:10080C00204801F010FC4FF480511E4801F023FCED
:10081C0001224FF400511B4801F005FC012210216C
:10082C00184801F000FC2021164801F014FC0122AC
:10083C004021144801F0F7FB20E001224FF4006145
:10084C00104801F0F0FB4FF400510E4801F003FC8E
:10085C0001224FF480510B4801F0E5FB01221021DD
:10086C00084801F0E0FB4021064801F0F4FB0122AE
:10087C002021044801F0D7FB00E000BF00BF80BD81
:10088C00B00000200008014080B500AF494B1B6848
:10089C00032B7FD801A252F823F000BFB90800083F
:1008AC00F30800082D0900086709000800228021C0
:1008BC00414801F0B8FB01224FF480713E4801F031
:1008CC00B2FB01224FF400713B4801F0ACFB01225A
:1008DC004FF48061384801F0A6FB384B1B68184672
:1008EC00FFF71EFD57E001228021334801F09BFBEE
:1008FC0000224FF48071304801F095FB01224FF437
:10090C0000712D4801F08FFB01224FF480612A48C1
:10091C0001F089FB294B5B681846FFF701FD3AE0B3
:10092C0001228021244801F07EFB01224FF48071CA
:10093C00214801F078FB00224FF400711E4801F0B1
:10094C0072FB01224FF480611B4801F06CFB1B4BC6
:10095C009B681846FFF7E4FC1DE001228021164835
:10096C0001F061FB01224FF48071134801F05BFB35
:10097C0001224FF40071104801F055FB00224FF496
:10098C0080610D4801F04FFB0C4BDB681846FFF7FC
:10099C00C7FC00E000BF074B1B680133054A13601E
:1009AC00044B1B68032B02DD024B00221A6000BFB4
:1009BC0080BD00BFA0000020000801409000002076
:1009CC0080B500AF7B4B1B68023B032B0AD87A4BDC
:1009DC001B68013B784A1360784B1B68013B774AD4
:1009EC00136000E000BF744B1B68002B03DB734BE0
:1009FC001B68002B3EDA6F4B1B68023B032B3BD86A
:100A0C0001A252F823F000BF250A0008370A00089B
:100A1C00530A0008650A0008664B03221A60684BEB
:100A2C001B68013B654A136027E0624B04221A6085
:100A3C00644B1B68013B604A1360634B1B68013BB2
:100A4C005E4A136019E05B4B05221A605C4B1B6815
:100A5C00013B594A136010E0564B02221A605A4B64
:100A6C001B68013B544A1360564B1B68013B534AAD
:100A7C00136002E000BF00E000BF4E4B1B68023B5E
:100A8C00032B00F2938001A252F823F0A90A00086C
:100A9C00ED0A0008310B0008750B000800224FF41A
:100AAC0000614A4801F0BFFA01224FF480514748D7
:100ABC0001F0B9FA01224FF40051444801F0B3FAA5
:100ACC0001221021414801F0AEFA012220213F48B9
:100ADC0001F0A9FA002240213C4801F0A4FA66E09A
:100AEC0000224FF40061394801F09DFA01224FF4C5
:100AFC008051364801F097FA01224FF400513348E7
:100B0C0001F091FA01221021304801F08CFA0022F8
:100B1C0020212E4801F087FA012240212B4801F0B8
:100B2C0082FA44E001224FF40061284801F07BFA7C
:100B3C0001224FF48051254801F075FA00224FF440
:100B4C000051224801F06FFA002210211F4801F0D9
:100B5C006AFA012220211D4801F065FA0122402188
:100B6C001A4801F060FA22E001224FF400611748A4
:100B7C0001F059FA00224FF48051144801F053FA55
:100B8C0001224FF40051114801F04DFA00221021BE
:100B9C000E4801F048FA012220210C4801F043FADA
:100BAC0001224021094801F03EFA00E000BF00BFDD
:100BBC0080BD00BFB0000020A4000020A8000020D1
:100BCC005400002058000020500000200008014074
:100BDC0080B582B000AFFFF733FD0020FFF7B0FA0D
:100BEC000346002B3CD07E4B1B68023B062B39D8AE
:100BFC0001A252F823F000BF210C0008210C0008C0
:100C0C00210C0008210C0008310C0008410C0008D4
:100C1C00510C0008734B1B68734A1360704B06220F
:100C2C001A6020E0714B1B686F4A13606C4B0722F3
:100C3C001A6018E06E4B1B686B4A1360684B0822F5
:100C4C001A6010E0674B1B68013B6A4A1360684BE3
:100C5C001B68013B684A1360614B02221A6002E078
:100C6C0000BF00E000BF0120FFF76AFA0346002B2B
:100C7C0011D05B4B1B68063B022B0ED85A4B1B68E2
:100C8C000133594A1360584B1B68632B07DD564BD5
:100C9C0001221A6003E000BF02E000BF00E000BFC9
:100CAC000220FFF74DFA0346002B00F092804C4BCC
:100CBC001B68082B62D0082B00F38D80062B02D00A
:100CCC00072B2CD087E0484B1B68464A1360484BD7
:100CDC001A68464B1B681A44424B1B689A4207DC45
:100CEC00404B1A68414B1B68D31A414A136073E09E
:100CFC003C4B1B68DA0F13445B107B60394B1B6851
:100D0C00002B03F00103B8BF5B423B60374A7B68A2
:100D1C0013607A683B681344354A13605CE0324BCD
:100D2C001B68324A1360314B1A68314B1B681A44EA
:100D3C002C4B1B689A4207DC2A4B1A682B4B1B68FE
:100D4C00D31A2B4A136047E0294B1A68274B1B68B0
:100D5C001344632B07DC264B1A68244B1B68134483
:100D6C00204A136038E01F4B63221A601D4B1A682F
:100D7C001E4B1B68D31A1E4A13602DE01C4B1A68BD
:100D8C001A4B1B681A44174B1B689A4207DC154B0D
:100D9C001A68174B1B68D31A144A13601CE0134BC8
:100DAC001A68134B1B681344632B07DC0F4B1A6830
:100DBC000F4B1B6813440B4A13600DE0094B632265
:100DCC001A60084B1A680A4B1B68D31A074A13603F
:100DDC0002E000BF00E000BF00BF0837BD4680BD89
:100DEC00B000002050000020AC0000205400002077
:100DFC0058000020A4000020A800002080B582B07C
:100E0C0000AF78607B681B68084A93420AD1322392
:100E1C0001220749074802F099F9012204490548C3
:100E2C0002F017FA00BF0837BD4680BD00440040F1
:100E3C00B40000208001002080B500AF00F040FD20
:100E4C0000F02EF800F0DEF800F066F800F0B0F8D4
:100E5C000E4801F093FD00F057F9FFF725FA6422D4
:100E6C0064210B4800F0C0F905226421094800F008
:100E7C00BBF919226421084800F0B6F9012264215B
:100E8C00064800F0B1F900F015FBFCE73801002032
:100E9C00CD09000895080008AD070008DD0B000817
:100EAC0080B590B000AF07F1180328220021184636
:100EBC0002F098FF3B1D00221A605A609A60DA60BB
:100ECC001A610223BB610123BB621023FB62002366
:100EDC007B6307F11803184601F0F2F80346002B68
:100EEC0001D000F00BF90F237B600023BB600023C3
:100EFC00FB6000233B6100237B613B1D00211846F6
:100F0C0001F05EFB0346002B01D000F0F7F800BFA8
:100F1C004037BD4680BD000080B586B000AF07F1FC
:100F2C00080300221A605A609A60DA603B4600227D
:100F3C001A605A601D4B4FF080421A601B4B41F6F1
:100F4C003F725A60194B00229A60184B0922DA60E2
:100F5C00164B00221A61154B00229A61134801F0BE
:100F6C00BDFC0346002B01D000F0C8F84FF48053B1
:100F7C00BB6007F1080319460C4801F053FE034609
:100F8C00002B01D000F0BAF800233B6000237B60FB
:100F9C003B461946054802F01FF80346002B01D0CA
:100FAC0000F0ACF800BF1837BD4680BD38010020FA
:100FBC0080B500AF114B124A1A60104B4FF4165209
:100FCC005A600E4B00229A600C4B0022DA600B4BDD
:100FDC0000221A61094B0C225A61084B00229A61BB
:100FEC00064B0022DA61054802F060F80346002B3C
:100FFC0001D000F083F800BF80BD00BF800100204D
:10100C000044004080B588B000AF07F11003002207
:10101C001A605A609A60DA602E4B9B692D4A43F035
:10102C00100393612B4B9B6903F01003FB60FB686F
:10103C00284B9B69274A43F004039361254B9B691A
:10104C0003F00403BB60BB68224B9B69214A43F04D
:10105C00080393611F4B9B6903F008037B607B685B
:10106C00002243F6F0711C4800F0DDFF00227F21C6
:10107C001A4800F0D8FF4FF460433B6100237B61BA
:10108C000123BB6107F110031946154800F03AFE25
:10109C0043F6F0733B6101237B610023BB610223A8
:1010AC00FB6107F1100319460B4800F02BFE7F2360
:1010BC003B6101237B610023BB610223FB6107F1D0
:1010CC0010031946054800F01DFE00BF2037BD4631
:1010DC0080BD00BF0010024000080140000C014020
:1010EC000010014080B582B000AF786000F056F877
:1010FC00FFF750F800BF0837BD4680BD80B400AF85
:10110C0072B600BFFEE7000080B483B000AF0023CE
:10111C007B6033E01F497A6813469B0013449B00A5
:10112C000B4400221A601B497A6813469B00134437
:10113C009B000B44043300221A6016497A6813464C
:10114C009B0013449B000B44083300221A60114986
:10115C007A6813469B0013449B000B440C3300220B
:10116C001A700C497A6813469B0013449B000B447D
:10117C0010337A681A607B6801337B607B68052BBF
:10118C00C8D9054B00221A6000BF0C37BD4680BC85
:10119C00704700BFC0000020BC00002080B400AF2E
:1011AC00104B1B68002B18D00E4B1B7B002B14D143
:1011BC000C4B5B68002B0BD10A4B01221A73094BA9
:1011CC009B68002B09D0074B9B68064A536004E0D0
:1011DC00044B5B68013B034A536000BFBD4680BCB7
:1011EC00704700BFC000002080B489B000AFF86029
:1011FC00B9607A600023FB610023BB6147E1AA4917
:10120C00BA6913469B0013449B000B441B68002BCC
:10121C004ED1A549BA6913469B0013449B000B445D
:10122C00FA681A60BA68FB69D11A9F48BA69134602
:10123C009B0013449B000344043319609A49BA6918
:10124C0013469B0013449B000B4408337A681A60C6
:10125C009549BA6913469B0013449B000B44103309
:10126C00BA691A609049BA6913469B0013449B00F3
:10127C000B440C3300221A70BB68002B09D18A492D
:10128C00BA6913469B0013449B000B440C33012298
:10129C001A70864B1B680133844A13608249BA6901
:1012AC0013469B0013449B000B4410331B68F6E061
:1012BC007D49BA6913469B0013449B000B440433CD
:1012CC001A68FB691344BA689A4280F0D180BA68F4
:1012DC00FB69D31A3B617449BA6913469B001344EA
:1012EC009B000B4404331A683B69D11A6E48BA69E7
:1012FC0013469B0013449B000344043319606B4B4F
:10130C001B687B6161E07B695A1E674913469B0031
:10131C0013449B000B44196863487A6913469B007D
:10132C0013449B00034419607B695A1E5E491346A3
:10133C009B0013449B000B44043319685A487A6988
:10134C0013469B0013449B000344043319607B69D0
:10135C005A1E554913469B0013449B000B440833FB
:10136C00196851487A6913469B0013449B00034447
:10137C00083319607B695A1E4B4913469B00134472
:10138C009B000B440C33187847497A6913469B0031
:10139C0013449B000B440C3302461A707B695A1E93
:1013AC00414913469B0013449B000B4410331B68AC
:1013BC00591C3D487A6913469B0013449B00034417
:1013CC00103319607B69013B7B617A69BB699A4276
:1013DC0099D83549BA6913469B0013449B000B44BA
:1013EC00FA681A60BA68FB69D11A2F48BA691346B1
:1013FC009B0013449B000344043319602A49BA69C7
:10140C0013469B0013449B000B4408337A681A6004
:10141C002549BA6913469B0013449B000B440C33BB
:10142C0000221A70BB68002B09D11F49BA691346F8
:10143C009B0013449B000B440C3301221A701A4975
:10144C00BA6913469B0013449B000B441033BA69D2
:10145C001A60164B1B680133144A13601249BA699F
:10146C0013469B0013449B000B4410331B6816E07F
:10147C000D49BA6913469B0013449B000B4404337B
:10148C001B68FA691344FB61BB690133BB61BB691F
:10149C00052B7FF6B4AE064B01221A6006231846C4
:1014AC002437BD4680BC7047C0000020B800002027
:1014BC00BC000020B0B586B000AF124B1B7B002BDC
:1014CC0018D0104B1B6898470E4B00221A730D4B0B
:1014DC003C1D1D460FCD0FC42B682360002000F06F
:1014EC0013F8FB68002B05D07B68B968FA681846BE
:1014FC00FFF77AFE0121002000F0C6FD00BF18376F
:10150C00BD46B0BDC000002080B485B000AF78608F
:10151C000023FB737B68052B00F2B8805E497A6868
:10152C0013469B0013449B000B441B68002B00F0DC
:10153C00AD800123FB737B68BB6061E0BB685A1C08
:10154C00554913469B0013449B000B4419685248A1
:10155C00BA6813469B0013449B0003441960BB6894
:10156C005A1C4D4913469B0013449B000B440433F7
:10157C0019684948BA6813469B0013449B000344FE
:10158C0004331960BB685A1C434913469B0013442F
:10159C009B000B44083319683F48BA6813469B00FC
:1015AC0013449B00034408331960BB685A1C3A4926
:1015BC0013469B0013449B000B440C33187836499C
:1015CC00BA6813469B0013449B000B440C33024631
:1015DC001A70BB685A1C304913469B0013449B007D
:1015EC000B4410331B68591E2B48BA6813469B00DA
:1015FC0013449B00034410331960BB680133BB6078
:10160C00264B1B681A46BB68934297D3234B1B6827
:10161C005A1E214913469B0013449B000B44002285
:10162C001A601E4B1B685A1E1B4913469B00134421
:10163C009B000B44043300221A60184B1B685A1E83
:10164C00154913469B0013449B000B44083300229E
:10165C001A60124B1B685A1E0F4913469B00134409
:10166C009B000B440C3300221A700C4B1B685A1E47
:10167C00094913469B0013449B000B441033002272
:10168C001A60064B1B68013B044A1360FB7B18462F
:10169C001437BD4680BC7047C0000020B800002045
:1016AC0080B485B000AF154B9B69144A43F001031D
:1016BC009361124B9B6903F00103BB60BB680F4B3A
:1016CC00DB690E4A43F08053D3610C4BDB6903F0AA
:1016DC0080537B607B680A4B5B68FB60FB6823F084
:1016EC00E063FB60FB6843F08063FB60044AFB68CB
:1016FC00536000BF1437BD4680BC704700100240D9
:10170C000000014080B584B000AF78607B681B6836
:10171C00B3F1804F13D10C4BDB690B4A43F001033F
:10172C00D361094BDB6903F00103FB60FB6800220A
:10173C0000211C2000F0FDF91C2000F016FA00BF5F
:10174C001037BD4680BD00BF0010024080B588B088
:10175C0000AF786007F1100300221A605A609A609B
:10176C00DA607B681B681F4A934237D11E4BDB69DA
:10177C001D4A43F40033D3611B4BDB6903F4003384
:10178C00FB60FB68184B9B69174A43F00403936199
:10179C00154B9B6903F00403BB60BB6804233B61DE
:1017AC0002237B610323FB6107F1100319460F48E9
:1017BC0000F0A8FA08233B6100237B610023BB6186
:1017CC0007F110031946094800F09CFA0022002189
:1017DC00262000F0AEF9262000F0C7F900BF203714
:1017EC00BD4680BD0044004000100240000801408E
:1017FC0080B400AFFEE780B400AFFEE780B400AF6A
:10180C00FEE780B400AFFEE780B400AFFEE780B423
:10181C0000AF00BFBD4680BC704780B400AF00BFB6
:10182C00BD4680BC704780B400AF00BFBD4680BCD5
:10183C00704780B500AF00F089F800BF80BD000094
:10184C0080B500AF024801F0E5F800BF80BD00BFD5
:10185C003801002080B500AF024801F01FFD00BF29
:10186C0080BD00BF8001002080B400AF00BFBD462A
:10187C0080BC7047FFF7F8FF0B480C490C4A00235B
:10188C0002E0D458C4500433C4188C42F9D3094A2A
:10189C00094C002301E013600432A242FBD302F096
:1018AC007DFAFFF7C9FA704700000020680000209D
:1018BC004C3E000868000020CC010020FEE7000030
:1018CC0080B500AF084B1B68074A43F01003136048
:1018DC00032000F023F90F2000F008F8FFF7E0FEDA
:1018EC000023184680BD00BF0020024080B582B0A6
:1018FC0000AF7860124B1A68124B1B7819464FF4E4
:10190C007A73B3FBF1F3B2FBF3F3184600F03BF937
:10191C000346002B01D001230EE07B680F2B0AD865
:10192C00002279684FF0FF3000F003F9064A7B681B
:10193C001360002300E0012318460837BD4680BD24
:10194C005C000020640000206000002080B400AF28
:10195C00054B1B781A46054B1B681344034A13604E
:10196C0000BFBD4680BC704764000020C801002049
:10197C0080B400AF024B1B681846BD4680BC704754
:10198C00C801002080B485B000AF78607B6803F09C
:10199C000703FB600C4BDB68BB60BA684FF6FF03B8
:1019AC001340BB60FB681A02BB68134343F0BF6370
:1019BC0043F40033BB60044ABB68D36000BF1437E8
:1019CC00BD4680BC704700BF00ED00E080B400AFA6
:1019DC00044BDB681B0A03F007031846BD4680BCAA
:1019EC00704700BF00ED00E080B483B000AF034649
:1019FC00FB7197F90730002B0BDBFB7903F01F020F
:101A0C00064997F907305B09012000FA02F241F808
:101A1C00232000BF0C37BD4680BC704700E100E0BE
:101A2C0080B483B000AF03463960FB7197F907307F
:101A3C00002B0ADB3B68DAB20C4997F9073012012C
:101A4C00D2B20B4483F800230AE03B68DAB20849AF
:101A5C00FB7903F00F03043B1201D2B20B441A764C
:101A6C0000BF0C37BD4680BC704700BF00E100E0F2
:101A7C0000ED00E080B489B000AFF860B9607A6026
:101A8C00FB6803F00703FB61FB69C3F10703042B3D
:101A9C0028BF0423BB61FB690433062B02D9FB6905
:101AAC00033B00E000237B614FF0FF32BB6902FA7D
:101ABC0003F3DA43BB681A407B699A404FF0FF315D
:101ACC007B6901FA03F3D9437B680B401343184637
:101ADC002437BD4680BC704780B582B000AF7860BB
:101AEC007B68013BB3F1807F01D301230FE00A4AED
:101AFC007B68013B53600F214FF0FF30FFF790FFE5
:101B0C00054B00229A60044B07221A6000231846EA
:101B1C000837BD4680BD00BF10E000E080B582B044
:101B2C0000AF78607868FFF72DFF00BF0837BD461F
:101B3C0080BD80B586B000AF0346B9607A60FB7398
:101B4C0000237B61FFF742FF78617A68B968786996
:101B5C00FFF790FF024697F90F3011461846FFF732
:101B6C005FFF00BF1837BD4680BD80B582B000AFA7
:101B7C000346FB7197F907301846FFF735FF00BF96
:101B8C000837BD4680BD80B582B000AF78607868FC
:101B9C00FFF7A2FF034618460837BD4680BD80B448
:101BAC0085B000AF78600023FB737B6893F821301D
:101BBC00DBB2022B08D07B6804229A637B6800227C
:101BCC0083F82020012320E07B681B681A687B685F
:101BDC001B6822F00E021A607B681B681A687B680F
:101BEC001B6822F001021A607B681A6C7B68DB6B45
:101BFC00012101FA02F25A607B68012283F821204C
:101C0C007B68002283F82020FB7B18461437BD46E6
:101C1C0080BC704780B584B000AF78600023FB7344
:101C2C007B6893F82130DBB2022B05D07B68042251
:101C3C009A630123FB7351E07B681B681A687B680D
:101C4C001B6822F00E021A607B681B681A687B689E
:101C5C001B6822F001021A607B681B68224A9342BF
:101C6C0029D07B681B68214A934222D07B681B6871
:101C7C001F4A93421AD07B681B681E4A934212D0AB
:101C8C007B681B681C4A93420AD07B681B681B4A02
:101C9C00934202D14FF480130EE04FF080730BE0AF
:101CAC004FF4803308E04FF4805305E04FF4807319
:101CBC0002E0102300E00123114A53607B680122EB
:101CCC0083F821207B68002283F820207B685B6BE3
:101CDC00002B03D07B685B6B78689847FB7B1846BE
:101CEC001037BD4680BD00BF080002401C000240FA
:101CFC003000024044000240580002406C00024098
:101D0C000000024080B48BB000AF786039600023D3
:101D1C007B6200233B6248E101227B6A02FA03F3F7
:101D2C00FB613B681B68FA691340BB61BA69FB69CC
:101D3C009A4240F037813B685B68A34A93425ED07D
:101D4C00A14A934275D8A14A934258D09F4A9342D4
:101D5C006FD89F4A934252D09D4A934269D89D4A6C
:101D6C0093424CD09B4A934263D89B4A934246D0B1
:101D7C00994A93425DD8122B2AD8122B59D801A21A
:101D8C0052F823F00B1E0008E51D0008F71D000893
:101D9C00391E00083F1E00083F1E00083F1E0008A9
:101DAC003F1E00083F1E00083F1E00083F1E000893
:101DBC003F1E00083F1E00083F1E00083F1E000883
:101DCC003F1E00083F1E0008ED1D0008011E000804
:101DDC00824A934213D02CE03B68DB683B6229E0DB
:101DEC003B68DB6804333B6224E03B68DB68083308
:101DFC003B621FE03B68DB680C333B621AE03B68DC
:101E0C009B68002B02D104233B6213E03B689B6868
:101E1C00012B05D108233B627B68FA691A6109E042
:101E2C0008233B627B68FA695A6103E000233B623A
:101E3C0000E000BFBB69FF2B01D87B6801E07B6829
:101E4C0004337B61BB69FF2B02D87B6A9B0002E0E9
:101E5C007B6A083B9B003B617B691A680F213B69DD
:101E6C0001FA03F3DB431A40396A3B6901FA03F3C5
:101E7C001A437B691A603B685B6803F08053002B44
:101E8C0000F09080564B9B69554A43F001039361D7
:101E9C00534B9B6903F00103BB60BB68514A7B6ADF
:101EAC009B08023352F82330FB607B6A03F0030378
:101EBC009B000F2202FA03F3DB43FA681340FB602A
:101ECC007B68494A93420DD07B68484A934207D0BD
:101EDC007B68474A934201D1022304E0032302E0CA
:101EEC00012300E000237A6A02F00302920093407F
:101EFC00FA681343FB603B497B6A9B080233FA6820
:101F0C0041F823203B685B6803F48013002B06D058
:101F1C00384B9A683749BB6913438B6006E0354BE5
:101F2C009A68BB69DB43334913408B603B685B6841
:101F3C0003F40013002B06D02E4BDA682D49BB6935
:101F4C001343CB6006E02B4BDA68BB69DB432949B2
:101F5C001340CB603B685B6803F40033002B06D066
:101F6C00244B5A682349BB6913434B6006E0214B51
:101F7C005A68BB69DB431F4913404B603B685B6885
:101F8C0003F48033002B06D01A4B1A681949BB692D
:101F9C0013430B6006E0174B1A68BB69DB4315490A
:101FAC0013400B607B6A01337B623B681A687B6A67
:101FBC0022FA03F3002B7FF4AFAE00BF00BF2C3727
:101FCC00BD4680BC704700BF0000321000003110CD
:101FDC00000022100000211000001210000011104F
:101FEC00001002400000014000080140000C0140BC
:101FFC00001001400004014080B485B000AF78604F
:10200C000B467B807B689A687B881340002B02D040
:10201C000123FB7301E00023FB73FB7B1846143791
:10202C00BD4680BC704780B483B000AF78600B466F
:10203C007B8013467B707B78002B03D07A887B687F
:10204C001A6103E07B881A047B681A6100BF0C37A5
:10205C00BD4680BC704780B485B000AF78600B463D
:10206C007B807B68DB68FB607A88FB6813401A0412
:10207C00FB68D9437B880B401A437B681A6100BF0D
:10208C001437BD4680BC704780B483B000AF786015
:10209C000B46FB70094B1B69084A23F004031361C0
:1020AC00FB78012B01D130BF02E040BF20BF20BF25
:1020BC0000BF0C37BD4680BC704700BF00ED00E090
:1020CC0080B586B000AF78607B68002B01D101230E
:1020DC006CE27B681B6803F00103002B00F0878027
:1020EC00924B5B6803F00C03042B0CD08F4B5B689A
:1020FC0003F00C03082B12D18C4B5B6803F4803378
:10210C00B3F5803F0BD1894B1B6803F40033002BD4
:10211C006CD07B685B68002B68D1012346E27B683E
:10212C005B68B3F5803F06D1804B1B687F4A43F454
:10213C00803313602EE07B685B68002B0CD17B4BEB
:10214C001B687A4A23F480331360784B1B68774AF8
:10215C0023F4802313601DE07B685B68B3F5A02F2C
:10216C000CD1724B1B68714A43F4802313606F4B84
:10217C001B686E4A43F4803313600BE06B4B1B6897
:10218C006A4A23F480331360684B1B68674A23F454
:10219C00802313607B685B68002B13D0FFF7E8FB90
:1021AC00386108E0FFF7E4FB02463B69D31A642B65
:1021BC0001D90323FAE15D4B1B6803F40033002BB8
:1021CC00F0D014E0FFF7D4FB386108E0FFF7D0FB48
:1021DC0002463B69D31A642B01D90323E6E1534B26
:1021EC001B6803F40033002BF0D100E000BF7B68C8
:1021FC001B6803F00203002B63D04C4B5B6803F0AD
:10220C000C03002B0BD0494B5B6803F00C03082B21
:10221C001CD1464B5B6803F48033002B16D1434B27
:10222C001B6803F00203002B05D07B681B69012B94
:10223C0001D00123BAE13D4B1B6823F0F8027B6807
:10224C005B69DB00394913430B603AE07B681B691F
:10225C00002B20D0364B01221A60FFF789FB386126
:10226C0008E0FFF785FB02463B69D31A022B01D924
:10227C0003239BE12D4B1B6803F00203002BF0D0D2
:10228C002A4B1B6823F0F8027B685B69DB0027494B
:10229C0013430B6015E0264B00221A60FFF768FB16
:1022AC00386108E0FFF764FB02463B69D31A022B46
:1022BC0001D903237AE11D4B1B6803F00203002BA9
:1022CC00F0D17B681B6803F00803002B3AD07B68C5
:1022DC009B69002B19D0174B01221A60FFF748FBA2
:1022EC00386108E0FFF744FB02463B69D31A022B26
:1022FC0001D903235AE10D4B5B6A03F00203002B57
:10230C00F0D0012000F0CCFA1CE00A4B00221A603D
:10231C00FFF72EFB38610FE0FFF72AFB02463B6903
:10232C00D31A022B08D9032340E100BF001002404E
:10233C0000004242800442429E4B5B6A03F002035F
:10234C00002BE9D17B681B6803F00403002B00F021
:10235C00A6800023FB75974BDB6903F08053002BA1
:10236C000DD1944BDB69934A43F08053D361914B6D
:10237C00DB6903F08053BB60BB680123FB758E4B9C
:10238C001B6803F48073002B18D18B4B1B688A4A93
:10239C0043F480731360FFF7EBFA386108E0FFF742
:1023AC00E7FA02463B69D31A642B01D90323FDE0FB
:1023BC00814B1B6803F48073002BF0D07B68DB68C7
:1023CC00012B06D17B4B1B6A7A4A43F00103136243
:1023DC002DE07B68DB68002B0CD1764B1B6A754AB1
:1023EC0023F001031362734B1B6A724A23F004033C
:1023FC0013621CE07B68DB68052B0CD16D4B1B6AF0
:10240C006C4A43F0040313626A4B1B6A694A43F03B
:10241C00010313620BE0674B1B6A664A23F001034E
:10242C001362644B1B6A634A23F0040313627B68D8
:10243C00DB68002B15D0FFF79BFA38610AE0FFF739
:10244C0097FA02463B69D31A41F28832934201D97A
:10245C000323ABE0574B1B6A03F00203002BEED0B7
:10246C0014E0FFF785FA38610AE0FFF781FA0246BB
:10247C003B69D31A41F28832934201D9032395E088
:10248C004C4B1B6A03F00203002BEED1FB7D012B9E
:10249C0005D1484BDB69474A23F08053D3617B68F5
:1024AC00DB69002B00F08180424B5B6803F00C036E
:1024BC00082B61D07B68DB69022B46D13F4B002295
:1024CC001A60FFF755FA386108E0FFF751FA024637
:1024DC003B69D31A022B01D9032367E0354B1B68E8
:1024EC0003F00073002BF0D17B681B6AB3F5803FBF
:1024FC0008D1304B5B6823F400327B689B682D4914
:10250C0013434B602B4B5B6823F474127B68196A82
:10251C007B685B6A0B43274913434B60274B0122B3
:10252C001A60FFF725FA386108E0FFF721FA024636
:10253C003B69D31A022B01D9032337E01D4B1B68CF
:10254C0003F00073002BF0D02FE01C4B00221A601C
:10255C00FFF70EFA386108E0FFF70AFA02463B690A
:10256C00D31A022B01D9032320E0124B1B6803F072
:10257C000073002BF0D118E07B68DB69012B01D1D3
:10258C00012313E00B4B5B68FB60FB6803F48032A8
:10259C007B681B6A9A4206D1FB6803F470127B6855
:1025AC005B6A9A4201D0012300E0002318461837D9
:1025BC00BD4680BD001002400070004060004242E9
:1025CC0080B584B000AF786039607B68002B01D196
:1025DC000123D0E06A4B1B6803F007033A689A4268
:1025EC0010D9674B1B6823F0070265493B681343FE
:1025FC000B60634B1B6803F007033A689A4201D0E7
:10260C000123B8E07B681B6803F00203002B20D089
:10261C007B681B6803F00403002B05D0594B5B68E7
:10262C00584A43F4E06353607B681B6803F008036B
:10263C00002B05D0534B5B68524A43F460535360F4
:10264C00504B5B6823F0F0027B689B684D49134349
:10265C004B607B681B6803F00103002B40D07B6848
:10266C005B68012B07D1474B1B6803F40033002B2D
:10267C0015D101237FE07B685B68022B07D1414BAE
:10268C001B6803F00073002B09D1012373E03D4B51
:10269C001B6803F00203002B01D101236BE0394BC3
:1026AC005B6823F003027B685B68364913434B601D
:1026BC00FFF75EF9F8600AE0FFF75AF90246FB688B
:1026CC00D31A41F28832934201D9032353E02D4BA4
:1026DC005B6803F00C027B685B689B009A42EBD151
:1026EC00274B1B6803F007033A689A4210D2244B1D
:1026FC001B6823F0070222493B6813430B60204BF5
:10270C001B6803F007033A689A4201D0012332E0B8
:10271C007B681B6803F00403002B08D0194B5B6823
:10272C0023F4E0627B68DB68164913434B607B68DB
:10273C001B6803F00803002B09D0124B5B6823F4D1
:10274C0060527B681B69DB000E4913434B6000F041
:10275C0021F802460B4B5B681B0903F00F030A4977
:10276C00CB5C22FA03F3094A1360094B1B68184629
:10277C00FFF7BCF8002318461037BD4680BD00BFDC
:10278C000020024000100240183E00085C000020AF
:10279C006000002080B487B000AF0023FB600023F2
:1027AC00BB6000237B6100237B6000233B611E4BDD
:1027BC005B68FB60FB6803F00C03042B02D0082B56
:1027CC0003D027E0194B3B6127E0FB689B0C03F01F
:1027DC000F03174AD35C7B60FB6803F48033002B38
:1027EC0010D0114B5B685B0C03F00103114AD35CF6
:1027FC00BB607B680D4A02FB03F2BB68B2FBF3F3D0
:10280C007B6104E07B680C4A02FB03F37B617B6910
:10281C003B6102E0054B3B6100BF3B6918461C372E
:10282C00BD4680BC704700BF0010024000127A0009
:10283C00303E0008403E000800093D0080B400AF67
:10284C00024B1B681846BD4680BC70475C000020DC
:10285C0080B500AFFFF7F2FF0246054B5B681B0A21
:10286C0003F007030349CB5C22FA03F3184680BD3F
:10287C0000100240283E000880B500AFFFF7DEFFD5
:10288C000246054B5B68DB0A03F007030349CB5C8C
:10289C0022FA03F3184680BD00100240283E0008BF
:1028AC0080B485B000AF78600A4B1B680A4AA2FB63
:1028BC0003235B0A7A6802FB03F3FB6000BFFB682F
:1028CC005A1EFA60002BF9D100BF00BF1437BD4669
:1028DC0080BC70475C000020D34D621080B582B084
:1028EC0000AF78607B68002B01D1012341E07B684D
:1028FC0093F83D30DBB2002B06D17B68002283F8C5
:10290C003C207868FEF7FEFE7B68022283F83D20AF
:10291C007B681A687B6804331946104600F06EFA1F
:10292C007B68012283F846207B68012283F83E20D5
:10293C007B68012283F83F207B68012283F84020CA
:10294C007B68012283F841207B68012283F84220B6
:10295C007B68012283F843207B68012283F84420A2
:10296C007B68012283F845207B68012283F83D2097
:10297C00002318460837BD4680BD000080B485B0E2
:10298C0000AF78607B6893F83D30DBB2012B01D04F
:10299C00012335E07B68022283F83D207B681B68AD
:1029AC00DA687B681B6842F00102DA607B681B689E
:1029BC00164A934209D07B681B68B3F1804F04D050
:1029CC007B681B68124A934211D17B681B689B6819
:1029DC0003F00703FB60FB68062B10D07B681B68B9
:1029EC001A687B681B6842F001021A6007E07B687A
:1029FC001B681A687B681B6842F001021A6000238E
:102A0C0018461437BD4680BC704700BF002C0140EF
:102A1C000004004080B582B000AF78607B681B6812
:102A2C001B6903F00203022B22D17B681B68DB6855
:102A3C0003F00203022B1BD17B681B686FF00202B0
:102A4C001A617B6801221A777B681B689B6903F00B
:102A5C000303002B03D0786800F0B4F905E0786824
:102A6C0000F0A7F9786800F0B6F97B6800221A77B5
:102A7C007B681B681B6903F00403042B22D17B6861
:102A8C001B68DB6803F00403042B1BD17B681B68F9
:102A9C006FF004021A617B6802221A777B681B684C
:102AAC009B6903F44073002B03D0786800F08AF91B
:102ABC0005E0786800F07DF9786800F08CF97B68A7
:102ACC0000221A777B681B681B6903F00803082B2C
:102ADC0022D17B681B68DB6803F00803082B1BD131
:102AEC007B681B686FF008021A617B6804221A77F6
:102AFC007B681B68DB6903F00303002B03D0786849
:102B0C0000F060F905E0786800F053F9786800F09F
:102B1C0062F97B6800221A777B681B681B6903F0DB
:102B2C001003102B22D17B681B68DB6803F01003A9
:102B3C00102B1BD17B681B686FF010021A617B682D
:102B4C0008221A777B681B68DB6903F44073002B3F
:102B5C0003D0786800F036F905E0786800F029F9C0
:102B6C00786800F038F97B6800221A777B681B685C
:102B7C001B6903F00103012B0ED17B681B68DB681A
:102B8C0003F00103012B07D17B681B686FF0010276
:102B9C001A617868FEF7A6FA7B681B681B6903F05C
:102BAC008003802B0ED17B681B68DB6803F08003ED
:102BBC00802B07D17B681B686FF080021A617868E4
:102BCC0000F06BFA7B681B681B6903F04003402B19
:102BDC000ED17B681B68DB6803F04003402B07D1E8
:102BEC007B681B686FF040021A61786800F0FCF893
:102BFC007B681B681B6903F02003202B0ED17B68BC
:102C0C001B68DB6803F02003202B07D17B681B6853
:102C1C006FF020021A61786800F036FA00BF0837AE
:102C2C00BD4680BD80B584B000AF786039600023AC
:102C3C00FB737B6893F83C30012B01D10223B4E089
:102C4C007B68012283F83C207B68022283F83D20BC
:102C5C007B681B689B68BB60BB6823F07703BB6019
:102C6C00BB6823F47F43BB607B681B68BA689A60BF
:102C7C003B681B68B3F5005F3ED0B3F5005F00F214
:102C8C008780B3F5805F00F08680B3F5805F7FD8D6
:102C9C00702B1AD0702B7BD8602B50D0602B77D830
:102CAC00502B3CD0502B73D8402B58D0402B6FD886
:102CBC00302B64D0302B6BD8202B60D0202B67D8D6
:102CCC00002B5CD0102B5AD062E07B6818683B68F4
:102CDC0099683B685A683B68DB6800F05EF97B6872
:102CEC001B689B68BB60BB6843F07703BB607B6869
:102CFC001B68BA689A604FE07B6818683B689968F3
:102D0C003B685A683B68DB6800F047F97B681B68D6
:102D1C009A687B681B6842F480429A603CE07B684E
:102D2C0018683B6859683B68DB681A4600F0BEF8C7
:102D3C007B681B685021184600F015F92CE07B6865
:102D4C0018683B6859683B68DB681A4600F0DCF889
:102D5C007B681B686021184600F005F91CE07B6855
:102D6C0018683B6859683B68DB681A4600F09EF8A7
:102D7C007B681B684021184600F0F5F80CE07B6876
:102D8C001A683B681B681946104600F0ECF803E023
:102D9C000123FB7300E000BF7B68012283F83D2018
:102DAC007B68002283F83C20FB7B18461037BD461D
:102DBC0080BD80B483B000AF786000BF0C37BD46D7
:102DCC0080BC704780B483B000AF786000BF0C3714
:102DDC00BD4680BC704780B483B000AF786000BF44
:102DEC000C37BD4680BC704780B483B000AF7860B0
:102DFC0000BF0C37BD4680BC7047000080B485B066
:102E0C0000AF786039607B681B68FB607B68254A83
:102E1C00934207D07B68B3F1804F03D07B68224A82
:102E2C00934208D1FB6823F07003FB603B685B683E
:102E3C00FA681343FB607B681A4A934207D07B689D
:102E4C00B3F1804F03D07B68174A934208D1FB68DB
:102E5C0023F44073FB603B68DB68FA681343FB6048
:102E6C00FB6823F080023B685B691343FB607B6863
:102E7C00FA681A603B689A687B68DA623B681A6881
:102E8C007B689A627B68074A934203D13B681A6954
:102E9C007B681A637B6801225A6100BF1437BD46F8
:102EAC0080BC7047002C01400004004080B487B007
:102EBC0000AFF860B9607A60FB681B6A7B61FB68E5
:102ECC001B6A23F00102FB681A62FB689B693B6179
:102EDC003B6923F0F0033B617B681B013A691343A8
:102EEC003B617B6923F00A037B617A69BB681343FE
:102EFC007B61FB683A699A61FB687A691A6200BF68
:102F0C001C37BD4680BC704780B487B000AFF860FA
:102F1C00B9607A60FB681B6A7B61FB681B6A23F0F3
:102F2C001002FB681A62FB689B693B613B6923F4E6
:102F3C0070433B617B681B033A6913433B617B69BC
:102F4C0023F0A0037B61BB681B017A6913437B618F
:102F5C00FB683A699A61FB687A691A6200BF1C3790
:102F6C00BD4680BC704780B485B000AF78603960D6
:102F7C007B689B68FB60FB6823F07003FB603A681E
:102F8C00FB68134343F00703FB607B68FA689A60A5
:102F9C0000BF1437BD4680BC704780B487B000AF0B
:102FAC00F860B9607A603B60FB689B687B617B6909
:102FBC0023F47F437B613B681A027B681A43BB682E
:102FCC0013437A6913437B61FB687A699A6000BF8B
:102FDC001C37BD4680BC704780B485B000AF7860AC
:102FEC0039607B6893F83C30012B01D1022341E01E
:102FFC007B68012283F83C207B68022283F83D2009
:10300C007B681B685B68FB607B681B689B68BB60AC
:10301C00FB6823F07003FB603B681B68FA68134382
:10302C00FB607B681B68FA685A607B681B68144AF3
:10303C00934209D07B681B68B3F1804F04D07B6846
:10304C001B68104A93420CD1BB6823F08003BB6011
:10305C003B685B68BA681343BB607B681B68BA68E3
:10306C009A607B68012283F83D207B68002283F8FC
:10307C003C20002318461437BD4680BC704700BF67
:10308C00002C01400004004080B483B000AF786095
:10309C0000BF0C37BD4680BC704780B483B000AF16
:1030AC00786000BF0C37BD4680BC704780B582B0DD
:1030BC0000AF78607B68002B01D1012342E07B6874
:1030CC0093F84130DBB2002B06D17B68002283F8E9
:1030DC0040207868FEF73AFB7B68242283F8412075
:1030EC007B681B68DA687B681B6822F40052DA6024
:1030FC00786800F0C5FD7B681B681A697B681B68E3
:10310C0022F490421A617B681B685A697B681B68C1
:10311C0022F02A025A617B681B68DA687B681B689C
:10312C0042F40052DA607B6800225A647B682022E9
:10313C0083F841207B68202283F842207B680022A0
:10314C005A63002318460837BD4680BD80B58AB047
:10315C0002AFF860B9603B601346FB8000237B61D3
:10316C00FB6893F84130DBB2202B6DD1BB68002B90
:10317C0002D0FB88002B01D1012366E0FB68002202
:10318C005A64FB68212283F84120FEF7F1FB786139
:10319C00FB68FA889A84FB68FA88DA84FB689B6877
:1031AC00B3F5805F08D1FB681B69002B04D10023A9
:1031BC00FB61BB68BB6103E0BB68FB610023BB61C7
:1031CC002AE03B6800937B6900228021F86800F0BC
:1031DC0014FB0346002B01D0032336E0FB69002BC4
:1031EC000BD1BB691B881A46FB681B68C2F308022B
:1031FC005A60BB690233BB6107E0FB691A78FB6854
:10320C001B685A60FB690133FB61FB68DB8C9BB26A
:10321C00013B9AB2FB68DA84FB68DB8C9BB2002B17
:10322C00CFD13B6800937B6900224021F86800F005
:10323C00E4FA0346002B01D0032306E0FB682022AE
:10324C0083F84120002300E0022318462037BD46B6
:10325C0080BD80B584B000AFF860B9601346FB80C8
:10326C00FB6893F84230DBB2202B12D1BB68002BE9
:10327C0002D0FB88002B01D101230BE0FB6800225C
:10328C001A63FB881A46B968F86800F024FB0346F9
:10329C0000E0022318461037BD4680BD80B5BAB099
:1032AC0000AF78607B681B681B68C7F8E4307B68EC
:1032BC001B68DB68C7F8E0307B681B685B69C7F884
:1032CC00DC300023C7F8D8300023C7F8D430D7F847
:1032DC00E43003F00F03C7F8D830D7F8D830002B00
:1032EC000FD1D7F8E43003F02003002B09D0D7F826
:1032FC00E03003F02003002B03D0786800F001FCD1
:10330C005BE2D7F8D830002B00F0DE80D7F8DC3049
:10331C0003F00103002B06D1D7F8E03003F49073CF
:10332C00002B00F0D180D7F8E43003F00103002B20
:10333C000BD0D7F8E03003F48073002B05D07B68FA
:10334C005B6C43F001027B685A64D7F8E43003F0FD
:10335C000403002B0BD0D7F8DC3003F00103002B57
:10336C0005D07B685B6C43F002027B685A64D7F82B
:10337C00E43003F00203002B0BD0D7F8DC3003F061
:10338C000103002B05D07B685B6C43F004027B6867
:10339C005A64D7F8E43003F00803002B11D0D7F8A7
:1033AC00E03003F02003002B05D1D7F8DC3003F01C
:1033BC000103002B05D07B685B6C43F008027B6833
:1033CC005A647B685B6C002B00F0F281D7F8E43018
:1033DC0003F02003002B08D0D7F8E03003F02003D3
:1033EC00002B02D0786800F08CFB7B681B685B6953
:1033FC0003F04003002B14BF01230023DBB2C7F8FA
:10340C00D4307B685B6C03F00803002B03D1D7F836
:10341C00D430002B4FD0786800F096FA7B681B688C
:10342C005B6903F04003002B41D07B681B681433AD
:10343C00C7F89C30D7F89C3053E8003FC7F8983059
:10344C00D7F8983023F04003C7F8D0307B681B685E
:10345C001433D7F8D020C7F8A820C7F8A430D7F871
:10346C00A410D7F8A82041E80023C7F8A030D7F85B
:10347C00A030002BD9D17B68DB6B002B13D07B6881
:10348C00DB6B7E4A5A637B68DB6B1846FEF7C2FB2C
:10349C000346002B16D07B68DB6B5B6B7A68D26BB8
:1034AC00104698470EE0786800F093F90AE07868C7
:1034BC0000F08FF906E0786800F08BF97B68002249
:1034CC005A6475E100BF73E17B681B6B012B40F004
:1034DC004F81D7F8E43003F01003002B00F0488143
:1034EC00D7F8E03003F01003002B00F041810023EB
:1034FC00BB607B681B681B68BB607B681B685B6878
:10350C00BB60BB687B681B685B6903F04003002BE6
:10351C0000F0B6807B68DB6B1B685B68A7F8BE307D
:10352C00B7F8BE30002B00F045817B689B8DB7F857
:10353C00BE209A4280F03E817B68B7F8BE20DA85C7
:10354C007B68DB6B9B69202B00F088807B681B6899
:10355C000C33C7F88830D7F8883053E8003FC7F8E9
:10356C008430D7F8843023F48073C7F8B8307B6884
:10357C001B680C33D7F8B820C7F89420C7F89030E4
:10358C00D7F89010D7F8942041E80023C7F88C3076
:10359C00D7F88C30002BD9D17B681B6814337B6730
:1035AC007B6F53E8003F3B673B6F23F00103C7F889
:1035BC00B4307B681B681433D7F8B420C7F880206C
:1035CC00FB67F96FD7F8802041E80023BB67BB6F1E
:1035DC00002BE1D17B681B6814333B663B6E53E8D0
:1035EC00003FFB65FB6D23F04003C7F8B0307B68F0
:1035FC001B681433D7F8B020FA66BB66B96EFA6E46
:10360C0041E800237B667B6E002BE3D17B68202294
:10361C0083F842207B6800221A637B681B680C339A
:10362C00FB64FB6C53E8003FBB64BB6C23F01003E2
:10363C00C7F8AC307B681B680C33D7F8AC20BA6584
:10364C007B65796DBA6D41E800233B653B6D002BC2
:10365C00E3D17B68DB6B1846FEF7A1FA7B6802228C
:10366C005A637B689A8D7B68DB8D9BB2D31A9BB2B5
:10367C001946786800F0B6F89CE000BF193A0008CB
:10368C007B689A8D7B68DB8D9BB2D31AA7F8CE3002
:10369C007B68DB8D9BB2002B00F08E80B7F8CE30B0
:1036AC00002B00F089807B681B680C33BB63BB6B01
:1036BC0053E8003F7B637B6B23F49073C7F8C830EF
:1036CC007B681B680C33D7F8C8207A643B64396C70
:1036DC007A6C41E80023FB63FB6B002BE3D17B6826
:1036EC001B6814337B627B6A53E8003F3B623B6A86
:1036FC0023F00103C7F8C4307B681B681433D7F878
:10370C00C4203A63FB62F96A3A6B41E80023BB625E
:10371C00BB6A002BE3D17B68202283F842207B68B4
:10372C0000221A637B681B680C333B613B6953E8CE
:10373C00003FFB60FB6823F01003C7F8C0307B68C8
:10374C001B680C33D7F8C020FA61BB61B969FA6900
:10375C0041E800237B617B69002BE3D17B6802226B
:10376C005A63B7F8CE301946786800F03BF823E07E
:10377C00D7F8E43003F08003002B09D0D7F8E03001
:10378C0003F08003002B03D0786800F053F914E0A9
:10379C00D7F8E43003F04003002B0ED0D7F8E0301C
:1037AC0003F04003002B08D0786800F092F904E095
:1037BC0000BF02E000BF00E000BFE837BD4680BD9F
:1037CC0080B483B000AF786000BF0C37BD4680BCBE
:1037DC00704780B483B000AF786000BF0C37BD4633
:1037EC0080BC704780B483B000AF78600B467B80A0
:1037FC0000BF0C37BD4680BC704780B590B000AFA1
:10380C00F860B9603B601346FB7150E0BB6CB3F1E0
:10381C00FF3F4CD0BB6C002B07D0FEF7A9F802463B
:10382C003B68D31ABA6C9A4241D2FB681B680C33C2
:10383C00BB62BB6A53E8003F7B627B6A23F4D073A4
:10384C00FB63FB681B680C33FA6B7A633B63396B65
:10385C007A6B41E80023FB62FB6A002BE5D1FB6825
:10386C001B6814337B617B6953E8003F3B613B6908
:10387C0023F00103BB63FB681B681433BA6B3A6219
:10388C00FB61F9693A6A41E80023BB61BB69002B13
:10389C00E5D1FB68202283F84120FB68202283F8C5
:1038AC004220FB68002283F8402003230FE0FB68D2
:1038BC001B681A68BB681340BA689A420CBF012394
:1038CC000023DBB21A46FB799A429FD0002318469C
:1038DC004037BD4680BD80B485B000AFF860B9609C
:1038EC001346FB80FB68BA689A62FB68FA889A8573
:1038FC00FB68FA88DA85FB6800225A64FB6822228E
:10390C0083F84220FB681B69002B07D0FB681B68FF
:10391C00DA68FB681B6842F48072DA60FB681B682B
:10392C005A69FB681B6842F001025A61FB681B680C
:10393C00DA68FB681B6842F02002DA600023184644
:10394C001437BD4680BC704780B495B000AF78602A
:10395C007B681B680C337B637B6B53E8003F3B63DA
:10396C003B6B23F49073FB647B681B680C33FA6C21
:10397C003A64FB63F96B3A6C41E80023BB63BB6BA5
:10398C00002BE5D17B681B6814333B623B6A53E820
:10399C00003FFB61FB6923F00103BB647B681B6880
:1039AC001433BA6CFA62BB62B96AFA6A41E8002352
:1039BC007B627B6A002BE5D17B681B6B012B19D1D9
:1039CC007B681B680C33FB60FB6853E8003FBB60F3
:1039DC00BB6823F010037B647B681B680C337A6C28
:1039EC00BA617B617969BA6941E800233B613B6943
:1039FC00002BE5D17B68202283F842207B680022D3
:103A0C001A6300BF5437BD4680BC704780B584B084
:103A1C0000AF78607B685B6AFB60FB680022DA852C
:103A2C00FB680022DA84F868FFF7D3FE00BF10377A
:103A3C00BD4680BD80B485B000AF78607B6893F8DC
:103A4C004130DBB2212B3ED17B689B68B3F5805FA4
:103A5C0014D17B681B69002B10D17B681B6AFB603F
:103A6C00FB681B881A467B681B68C2F308025A6005
:103A7C007B681B6A9A1C7B681A6208E07B681B6A6D
:103A8C00591C7A6811621A787B681B685A607B68CB
:103A9C00DB8C9BB2013B9BB27A681946D184002B1C
:103AAC000FD17B681B68DA687B681B6822F0800288
:103ABC00DA607B681B68DA687B681B6842F040023E
:103ACC00DA60002300E0022318461437BD4680BCA0
:103ADC00704780B582B000AF78607B681B68DA688D
:103AEC007B681B6822F04002DA607B68202283F836
:103AFC0041207868FFF764FE002318460837BD465E
:103B0C0080BD80B58CB000AF78607B6893F8423094
:103B1C00DBB2222B40F0AE807B689B68B3F5805FF4
:103B2C0017D17B681B69002B13D10023FB627B68C8
:103B3C009B6ABB627B681B685B689BB2C3F3080320
:103B4C009AB2BB6A1A807B689B6A9A1C7B689A62E1
:103B5C0026E07B689B6AFB620023BB627B689B68E8
:103B6C00B3F5805F07D07B689B68002B0AD17B681C
:103B7C001B69002B06D17B681B685B68DAB2FB6A99
:103B8C001A7008E07B681B685B68DBB203F07F038C
:103B9C00DAB2FB6A1A707B689B6A5A1C7B689A6261
:103BAC007B68DB8D9BB2013B9BB27A681946D18551
:103BBC00002B5DD17B681B68DA687B681B6822F080
:103BCC002002DA607B681B68DA687B681B6822F469
:103BDC008072DA607B681B685A697B681B6822F00C
:103BEC0001025A617B68202283F842207B68002204
:103BFC005A637B681B6B012B35D17B6800221A63DF
:103C0C007B681B680C337B617B6953E8003F3B612D
:103C1C003B6923F010037B627B681B680C337A6A68
:103C2C003A62FB61F9693A6A41E80023BB61BB69FE
:103C3C00002BE5D17B681B681B6803F01003102B6D
:103C4C000AD10023FB607B681B681B68FB607B68E8
:103C5C001B685B68FB60FB687B689B8D194678680A
:103C6C00FFF7C0FD02E07868FDF7C8F8002302E01A
:103C7C00002300E0022318463037BD4680BD00000B
:103C8C0080B584B000AF78607B681B681B6923F437
:103C9C0040517B68DA687B681B680A431A617B6851
:103CAC009A687B681B691A437B685B691343BB602A
:103CBC007B681B68DB6823F4B05323F00C037A6831
:103CCC001268B9680B43D3607B681B685B6923F48B
:103CDC0040717B689A697B681B680A435A617B68F0
:103CEC001B682C4A934203D1FEF7C6FDF86002E034
:103CFC00FEF7AEFDF860FA6813469B0013449A0079
:103D0C001A447B685B689B00B2FBF3F3224AA2FB6C
:103D1C0003235B091901FA6813469B0013449A00AC
:103D2C001A447B685B689B00B2FBF3F21A4BA3FB53
:103D3C0002035B09642000FB03F3D31A1B0132332B
:103D4C00154AA2FB03235B0903F0F0031944FA683C
:103D5C0013469B0013449A001A447B685B689B00D3
:103D6C00B2FBF3F20C4BA3FB02035B09642000FBD8
:103D7C0003F3D31A1B013233074AA2FB03235B095B
:103D8C0003F00F027B681B680A449A6000BF10376F
:103D9C00BD4680BD003801401F85EB5170B5002633
:103DAC000C4D0D4C641BA410A64209D100F022F856
:103DBC0000260A4D0A4C641BA410A64205D170BD06
:103DCC0055F8043B98470136EEE755F8043B984705
:103DDC000136F2E7443E0008443E0008443E000829
:103DEC00483E000803460244934200D1704703F852
:103DFC00011BF9E7F8B500BFF8BC08BC9E4670473C
:0C3E0C00F8B500BFF8BC08BC9E4670472B
:103E18000000000000000000010203040607080972
:103E28000000000001020304020304050607080954
:0C3E38000A0B0C0D0E0F10100102000010
:043E44003101000840
:043E48000D01000860
:103E4C000100000001000000010000000100000062
:103E5C000100000001000000010000000100000052
:103E6C000100000001000000010000000100000042
:103E7C00C8000000C8000000C8000000001001408D
:103E8C0000100140001001400020004000800000A4
:103E9C000500000002000000030000000024F400F4
:083EAC001000000001000000FD
:040000050800188156
:00000001FF
